:020000020000fc
:0100000001fe
:0100010003fb
:0100020003fa
:0100030002fa
:0100040001fa
:0100050003f7
:0100060002f7
:0100070002f6
:0100080000f7
:0100090002f4
:01000a0003f2
:01000b0002f2
:01000c0001f2
:01000d0000f2
:01000e0001f0
:01000f0003ed
:0100100002ed
:0100110003eb
:0100120000ed
:0100130003e9
:0100140001ea
:0100150003e7
:0100160003e6
:0100170001e7
:0100180000e7
:0100190003e3
:01001a0002e3
:01001b0000e4
:01001c0002e1
:01001d0001e1
:01001e0002df
:01001f0000e0
:0100200002dd
:0100210003db
:0100220000dd
:0100230002da
:0100240003d8
:0100250001d9
:0100260001d8
:0100270001d7
:0100280001d6
:0100290001d5
:01002a0003d2
:01002b0003d1
:01002c0001d2
:01002d0000d2
:01002e0002cf
:01002f0001cf
:0100300000cf
:0100310000ce
:0100320000cd
:0100330001cb
:0100340000cb
:0100350000ca
:0100360002c7
:0100370003c5
:0100380002c5
:0100390002c4
:01003a0000c5
:01003b0002c2
:01003c0002c1
:01003d0003bf
:01003e0000c1
:01003f0003bd
:0100400002bd
:0100410003bb
:0100420001bc
:0100430001bb
:0100440003b8
:0100450002b8
:0100460001b8
:0100470002b6
:0100480001b6
:0100490002b4
:01004a0003b2
:01004b0000b4
:01004c0003b0
:01004d0001b1
:01004e0002af
:01004f0001af
:0100500000af
:0100510003ab
:0100520003aa
:0100530002aa
:0100540002a9
:0100550001a9
:0100560000a9
:0100570003a5
:0100580002a5
:0100590003a3
:01005a0002a3
:01005b0002a2
:01005c0000a3
:01005d00039f
:01005e00039e
:01005f00019f
:01006000019e
:01006100019d
:01006200039a
:01006300029a
:01006400019a
:01006500009a
:010066000198
:010067000296
:010068000394
:010069000195
:01006a000293
:01006b000193
:01006c000291
:01006d00038f
:01006e00028f
:01006f000090
:01007000008f
:01007100008e
:01007200028b
:01007300028a
:01007400008b
:010075000189
:010076000188
:010077000088
:010078000087
:010079000185
:01007a000382
:01007b000084
:01007c000182
:01007d000181
:01007e00037e
:01007f00037d
:01008000007f
:01008100037b
:01008200037a
:010083000379
:010084000378
:010085000377
:010086000079
:010087000078
:010088000077
:010089000373
:01008a000174
:01008b000272
:01008c000073
:01008d000270
:01008e000170
:01008f00026e
:01009000026d
:01009100036b
:01009200016c
:01009300026a
:010094000368
:010095000367
:010096000069
:010097000365
:010098000364
:010099000066
:01009a000263
:01009b000262
:01009c000360
:01009d00035f
:01009e00025f
:01009f00035d
:0100a000025d
:0100a100025c
:0100a200005d
:0100a300005c
:0100a400015a
:0100a5000357
:0100a6000059
:0100a7000058
:0100a8000255
:0100a9000155
:0100aa000154
:0100ab000252
:0100ac000350
:0100ad000250
:0100ae000051
:0100af000050
:0100b000014e
:0100b100014d
:0100b200014c
:0100b300024a
:0100b4000348
:0100b5000347
:0100b6000346
:0100b7000147
:0100b8000245
:0100b9000343
:0100ba000045
:0100bb000242
:0100bc000340
:0100bd000240
:0100be00023f
:0100bf00023e
:0100c000023d
:0100c100033b
:0100c200013c
:0100c300013b
:0100c4000338
:0100c5000238
:0100c6000138
:0100c7000236
:0100c8000037
:0100c9000234
:0100ca000332
:0100cb000232
:0100cc000033
:0100cd000032
:0100ce00032e
:0100cf000030
:0100d000002f
:0100d100032b
:0100d200002d
:0100d300012b
:0100d4000328
:0100d500002a
:0100d6000128
:0100d7000127
:0100d8000126
:0100d9000323
:0100da000025
:0100db000024
:0100dc000320
:0100dd000220
:0100de000120
:0100df00021e
:0100e000011e
:0100e100011d
:0100e200021b
:0100e3000319
:0100e4000219
:0100e5000218
:0100e6000316
:0100e7000216
:0100e8000314
:0100e9000115
:0100ea000015
:0100eb000311
:0100ec000310
:0100ed000111
:0100ee000110
:0100ef00010f
:0100f000010e
:0100f100020c
:0100f200010c
:0100f3000309
:0100f4000308
:0100f5000208
:0100f6000306
:0100f7000206
:0100f8000205
:0100f9000204
:0100fa000203
:0100fb000103
:0100fc000003
:0100fd000101
:0100fe0003fe
:0100ff0001ff
:00000001FF
